{
  "contractName": "Race",
  "abi": [
    {
      "constant": true,
      "inputs": [],
      "name": "horseCount",
      "outputs": [
        {
          "name": "",
          "type": "uint256"
        }
      ],
      "payable": false,
      "stateMutability": "view",
      "type": "function"
    },
    {
      "constant": true,
      "inputs": [
        {
          "name": "",
          "type": "uint256"
        }
      ],
      "name": "bets",
      "outputs": [
        {
          "name": "index",
          "type": "uint256"
        },
        {
          "name": "player",
          "type": "address"
        },
        {
          "name": "amount",
          "type": "uint256"
        },
        {
          "name": "readyToRace",
          "type": "bool"
        }
      ],
      "payable": false,
      "stateMutability": "view",
      "type": "function"
    },
    {
      "constant": true,
      "inputs": [],
      "name": "winnerHorse",
      "outputs": [
        {
          "name": "",
          "type": "uint256"
        }
      ],
      "payable": false,
      "stateMutability": "view",
      "type": "function"
    },
    {
      "constant": true,
      "inputs": [],
      "name": "jackpot",
      "outputs": [
        {
          "name": "",
          "type": "uint256"
        }
      ],
      "payable": false,
      "stateMutability": "view",
      "type": "function"
    },
    {
      "constant": true,
      "inputs": [
        {
          "name": "",
          "type": "uint256"
        }
      ],
      "name": "horses",
      "outputs": [
        {
          "name": "id",
          "type": "uint256"
        },
        {
          "name": "name",
          "type": "string"
        }
      ],
      "payable": false,
      "stateMutability": "view",
      "type": "function"
    },
    {
      "constant": true,
      "inputs": [],
      "name": "raceFinished",
      "outputs": [
        {
          "name": "",
          "type": "bool"
        }
      ],
      "payable": false,
      "stateMutability": "view",
      "type": "function"
    },
    {
      "constant": true,
      "inputs": [],
      "name": "playersCount",
      "outputs": [
        {
          "name": "",
          "type": "uint256"
        }
      ],
      "payable": false,
      "stateMutability": "view",
      "type": "function"
    },
    {
      "constant": true,
      "inputs": [],
      "name": "playersReadyToRace",
      "outputs": [
        {
          "name": "",
          "type": "uint256"
        }
      ],
      "payable": false,
      "stateMutability": "view",
      "type": "function"
    },
    {
      "constant": true,
      "inputs": [],
      "name": "betCount",
      "outputs": [
        {
          "name": "",
          "type": "uint256"
        }
      ],
      "payable": false,
      "stateMutability": "view",
      "type": "function"
    },
    {
      "constant": true,
      "inputs": [
        {
          "name": "",
          "type": "address"
        }
      ],
      "name": "players",
      "outputs": [
        {
          "name": "",
          "type": "bool"
        }
      ],
      "payable": false,
      "stateMutability": "view",
      "type": "function"
    },
    {
      "inputs": [],
      "payable": false,
      "stateMutability": "nonpayable",
      "type": "constructor"
    },
    {
      "anonymous": false,
      "inputs": [],
      "name": "betPlaced",
      "type": "event"
    },
    {
      "anonymous": false,
      "inputs": [],
      "name": "playersReadyToRaceChanged",
      "type": "event"
    },
    {
      "anonymous": false,
      "inputs": [],
      "name": "finishedRace",
      "type": "event"
    },
    {
      "constant": false,
      "inputs": [
        {
          "name": "index",
          "type": "uint256"
        },
        {
          "name": "amount",
          "type": "uint256"
        }
      ],
      "name": "placeBet",
      "outputs": [],
      "payable": false,
      "stateMutability": "nonpayable",
      "type": "function"
    },
    {
      "constant": false,
      "inputs": [],
      "name": "playerReadyToRace",
      "outputs": [],
      "payable": false,
      "stateMutability": "nonpayable",
      "type": "function"
    }
  ],
  "bytecode": "0x60806040523480156200001157600080fd5b50620000616040805190810160405280600b81526020017f5365637265746172696174000000000000000000000000000000000000000000815250620001a3640100000000026401000000009004565b620000b06040805190810160405280600a81526020017f4d616e204f272057617200000000000000000000000000000000000000000000815250620001a3640100000000026401000000009004565b620000ff6040805190810160405280600a81526020017f5365616269736375697400000000000000000000000000000000000000000000815250620001a3640100000000026401000000009004565b6200014e6040805190810160405280600881526020017f50686172204c6170000000000000000000000000000000000000000000000000815250620001a3640100000000026401000000009004565b6200019d6040805190810160405280600781526020017f4672616e6b656c00000000000000000000000000000000000000000000000000815250620001a3640100000000026401000000009004565b620002ba565b604080519081016040528060005481526020018281525060076000806000815480929190600101919050558152602001908152602001600020600082015181600001556020820151816001019080519060200190620002049291906200020b565b5090505050565b828054600181600116156101000203166002900490600052602060002090601f016020900481019282601f106200024e57805160ff19168380011785556200027f565b828001600101855582156200027f579182015b828111156200027e57825182559160200191906001019062000261565b5b5090506200028e919062000292565b5090565b620002b791905b80821115620002b357600081600090555060010162000299565b5090565b90565b610b1080620002ca6000396000f3006080604052600436106100ba576000357c0100000000000000000000000000000000000000000000000000000000900463ffffffff1680630449bb39146100bf57806322af00fa146100ea5780634afe62b51461017057806362e33b1d146101a75780636b31ee01146101d25780638f8b5cde146101fd5780639917ffa8146102aa578063a3f67d6d146102d9578063b05b5d9d14610304578063b52c3b8a1461031b578063cf09449714610346578063e2eb41ff14610371575b600080fd5b3480156100cb57600080fd5b506100d46103cc565b6040518082815260200191505060405180910390f35b3480156100f657600080fd5b50610115600480360381019080803590602001909291905050506103d2565b604051808581526020018473ffffffffffffffffffffffffffffffffffffffff1673ffffffffffffffffffffffffffffffffffffffff1681526020018381526020018215151515815260200194505050505060405180910390f35b34801561017c57600080fd5b506101a5600480360381019080803590602001909291908035906020019092919050505061042f565b005b3480156101b357600080fd5b506101bc610649565b6040518082815260200191505060405180910390f35b3480156101de57600080fd5b506101e761064f565b6040518082815260200191505060405180910390f35b34801561020957600080fd5b5061022860048036038101908080359060200190929190505050610655565b6040518083815260200180602001828103825283818151815260200191508051906020019080838360005b8381101561026e578082015181840152602081019050610253565b50505050905090810190601f16801561029b5780820380516001836020036101000a031916815260200191505b50935050505060405180910390f35b3480156102b657600080fd5b506102bf610711565b604051808215151515815260200191505060405180910390f35b3480156102e557600080fd5b506102ee610724565b6040518082815260200191505060405180910390f35b34801561031057600080fd5b5061031961072a565b005b34801561032757600080fd5b5061033061094e565b6040518082815260200191505060405180910390f35b34801561035257600080fd5b5061035b610954565b6040518082815260200191505060405180910390f35b34801561037d57600080fd5b506103b2600480360381019080803573ffffffffffffffffffffffffffffffffffffffff16906020019092919050505061095a565b604051808215151515815260200191505060405180910390f35b60005481565b60086020528060005260406000206000915090508060000154908060010160009054906101000a900473ffffffffffffffffffffffffffffffffffffffff16908060020154908060030160009054906101000a900460ff16905084565b60008210158015610441575060005482105b151561044c57600080fd5b600360009054906101000a900460ff161561046a5761046961097a565b5b600960003373ffffffffffffffffffffffffffffffffffffffff1673ffffffffffffffffffffffffffffffffffffffff16815260200190815260200160002060009054906101000a900460ff161515156104c357600080fd5b6080604051908101604052808381526020013373ffffffffffffffffffffffffffffffffffffffff1681526020018281526020016000151581525060086000600460008154809291906001019190505581526020019081526020016000206000820151816000015560208201518160010160006101000a81548173ffffffffffffffffffffffffffffffffffffffff021916908373ffffffffffffffffffffffffffffffffffffffff1602179055506040820151816002015560608201518160030160006101000a81548160ff0219169083151502179055509050506001600960003373ffffffffffffffffffffffffffffffffffffffff1673ffffffffffffffffffffffffffffffffffffffff16815260200190815260200160002060006101000a81548160ff021916908315150217905550600160008154809291906001019190505550806006600082825401925050819055507fdce07abf25825c566e53cf40d663d19996a2158c8dc18e27ad92b4f643b31eff60405160405180910390a15050565b60055481565b60065481565b6007602052806000526040600020600091509050806000015490806001018054600181600116156101000203166002900480601f0160208091040260200160405190810160405280929190818152602001828054600181600116156101000203166002900480156107075780601f106106dc57610100808354040283529160200191610707565b820191906000526020600020905b8154815290600101906020018083116106ea57829003601f168201915b5050505050905082565b600360009054906101000a900460ff1681565b60015481565b600080600960003373ffffffffffffffffffffffffffffffffffffffff1673ffffffffffffffffffffffffffffffffffffffff16815260200190815260200160002060009054906101000a900460ff16151561078557600080fd5b60009150600090505b600454811015610874573373ffffffffffffffffffffffffffffffffffffffff166008600083815260200190815260200160002060010160009054906101000a900473ffffffffffffffffffffffffffffffffffffffff1673ffffffffffffffffffffffffffffffffffffffff1614801561082a57506008600082815260200190815260200160002060030160009054906101000a900460ff16155b156108675760016008600083815260200190815260200160002060030160006101000a81548160ff02191690831515021790555060019150610874565b808060010191505061078e565b81151561088057600080fd5b6002600081548092919060010191905055507f786bcabdf3f99427fffea5b287ea288902339473ea18eca49b0328d4495cb57d60405160405180910390a1600154600254141561094a57600054424460405180838152602001828152602001925050506040518091039020600190048115156108f857fe5b0660ff166005819055506001600360006101000a81548160ff0219169083151502179055507fea3258ccb4489771fa8fdb5b72504ef7f18fedb84dc20828f1344da450cc1fc360405160405180910390a15b5050565b60025481565b60045481565b60096020528060005260406000206000915054906101000a900460ff1681565b60008090505b600454811015610aa657600960006008600084815260200190815260200160002060010160009054906101000a900473ffffffffffffffffffffffffffffffffffffffff1673ffffffffffffffffffffffffffffffffffffffff1673ffffffffffffffffffffffffffffffffffffffff16815260200190815260200160002060006101000a81549060ff021916905560055460086000838152602001908152602001600020600001541415610a385760006006819055505b600860008281526020019081526020016000206000808201600090556001820160006101000a81549073ffffffffffffffffffffffffffffffffffffffff021916905560028201600090556003820160006101000a81549060ff021916905550508080600101915050610980565b6000600181905550600060048190555060006002819055506000600360006101000a81548160ff0219169083151502179055506000600581905550505600a165627a7a72305820b16ffe9e9904d2defa2230ec26030923f48f1e591bdfcff99d42b2763521edee0029",
  "source": "pragma solidity ^0.4.2;\n\ncontract Race {\n    \n    uint public horseCount;\n        \n    uint public playersCount;\n\n    uint public playersReadyToRace;\n    \n    bool public raceFinished;\n    \n    uint public betCount;\n    \n    uint public winnerHorse;\n    \n    uint public jackpot;\n\n    struct Horse {\n        uint id;\n        string name;\n    }\n    \n    struct Bet {\n        uint index;\n        address player;\n        uint amount;\n        bool readyToRace;\n    }\n\n    mapping(uint => Horse) public horses;\n    \n    mapping(uint => Bet) public bets;\n    \n    mapping(address => bool) public players;\n    \n    constructor() public {\n        addHorse(\"Secretariat\");\n        addHorse(\"Man O' War\");\n        addHorse(\"Seabiscuit\");\n        addHorse(\"Phar Lap\");\n        addHorse(\"Frankel\");\n    }\n\n    function addHorse (string name) private {\n        horses[horseCount++] = Horse(horseCount, name);\n    }\n    \n    function placeBet (uint index, uint amount) public {\n        require(index >=0 && index < horseCount);\n\n        if(raceFinished) {\n            reset();\n        }\n        \n        require(!players[msg.sender]);\n        bets[betCount++] = Bet(index, msg.sender, amount, false);\n        players[msg.sender] = true;\n        playersCount++;\n        jackpot += amount;\n        \n        emit betPlaced();\n    }\n    \n    function playerReadyToRace () public {\n        require(players[msg.sender]);\n\n        bool playerReady = false;\n        for (uint i=0; i<betCount; i++) {\n            if(bets[i].player == msg.sender && !bets[i].readyToRace) {\n                bets[i].readyToRace = true;\n                playerReady = true;\n                break;\n            }\n        }\n\n        require(playerReady);\n        \n        playersReadyToRace++;\n        emit playersReadyToRaceChanged();\n\n        if(playersReadyToRace == playersCount) {\n            winnerHorse = uint8(uint256(keccak256(block.timestamp, block.difficulty))%horseCount);\n            raceFinished = true;\n            emit finishedRace();\n        }\n    }\n    \n    function reset () private {\n        for (uint i=0; i<betCount; i++) {\n            delete players[bets[i].player];\n            if(bets[i].index == winnerHorse) {\n                jackpot = 0;\n            }\n            delete bets[i];\n        }\n        playersCount = 0;\n        betCount = 0;\n        playersReadyToRace = 0;\n        raceFinished = false;\n        winnerHorse = 0;\n    }\n    \n    event betPlaced ();\n\n    event playersReadyToRaceChanged();\n    \n    event finishedRace ();\n\n}\n",
  "sourcePath": "/Users/gabrielindik/Documents/Project/kbp/blockchain/contracts/Race.sol",
  "compiler": {
    "name": "solc",
    "version": "0.4.24+commit.e67f0147.Emscripten.clang"
  },
  "schemaVersion": "2.0.1",
  "updatedAt": "2018-07-08T15:35:15.026Z"
}