{
  "contractName": "Race",
  "abi": [
    {
      "constant": true,
      "inputs": [],
      "name": "horseCount",
      "outputs": [
        {
          "name": "",
          "type": "uint256"
        }
      ],
      "payable": false,
      "stateMutability": "view",
      "type": "function"
    },
    {
      "constant": true,
      "inputs": [
        {
          "name": "",
          "type": "uint256"
        }
      ],
      "name": "bets",
      "outputs": [
        {
          "name": "index",
          "type": "uint256"
        },
        {
          "name": "player",
          "type": "address"
        },
        {
          "name": "amount",
          "type": "uint256"
        }
      ],
      "payable": false,
      "stateMutability": "view",
      "type": "function"
    },
    {
      "constant": true,
      "inputs": [],
      "name": "winnerHorse",
      "outputs": [
        {
          "name": "",
          "type": "uint256"
        }
      ],
      "payable": false,
      "stateMutability": "view",
      "type": "function"
    },
    {
      "constant": true,
      "inputs": [],
      "name": "jackpot",
      "outputs": [
        {
          "name": "",
          "type": "uint256"
        }
      ],
      "payable": false,
      "stateMutability": "view",
      "type": "function"
    },
    {
      "constant": true,
      "inputs": [
        {
          "name": "",
          "type": "uint256"
        }
      ],
      "name": "horses",
      "outputs": [
        {
          "name": "id",
          "type": "uint256"
        },
        {
          "name": "name",
          "type": "string"
        }
      ],
      "payable": false,
      "stateMutability": "view",
      "type": "function"
    },
    {
      "constant": true,
      "inputs": [],
      "name": "raceFinished",
      "outputs": [
        {
          "name": "",
          "type": "bool"
        }
      ],
      "payable": false,
      "stateMutability": "view",
      "type": "function"
    },
    {
      "constant": true,
      "inputs": [],
      "name": "playersCount",
      "outputs": [
        {
          "name": "",
          "type": "uint256"
        }
      ],
      "payable": false,
      "stateMutability": "view",
      "type": "function"
    },
    {
      "constant": true,
      "inputs": [],
      "name": "playersReadyToRace",
      "outputs": [
        {
          "name": "",
          "type": "uint256"
        }
      ],
      "payable": false,
      "stateMutability": "view",
      "type": "function"
    },
    {
      "constant": true,
      "inputs": [],
      "name": "betCount",
      "outputs": [
        {
          "name": "",
          "type": "uint256"
        }
      ],
      "payable": false,
      "stateMutability": "view",
      "type": "function"
    },
    {
      "constant": true,
      "inputs": [
        {
          "name": "",
          "type": "address"
        }
      ],
      "name": "players",
      "outputs": [
        {
          "name": "",
          "type": "bool"
        }
      ],
      "payable": false,
      "stateMutability": "view",
      "type": "function"
    },
    {
      "inputs": [],
      "payable": false,
      "stateMutability": "nonpayable",
      "type": "constructor"
    },
    {
      "anonymous": false,
      "inputs": [],
      "name": "betPlaced",
      "type": "event"
    },
    {
      "anonymous": false,
      "inputs": [],
      "name": "playersReadyToRaceChanged",
      "type": "event"
    },
    {
      "anonymous": false,
      "inputs": [],
      "name": "finishedRace",
      "type": "event"
    },
    {
      "constant": false,
      "inputs": [
        {
          "name": "index",
          "type": "uint256"
        },
        {
          "name": "amount",
          "type": "uint256"
        }
      ],
      "name": "placeBet",
      "outputs": [],
      "payable": false,
      "stateMutability": "nonpayable",
      "type": "function"
    },
    {
      "constant": false,
      "inputs": [],
      "name": "playerReadyToRace",
      "outputs": [],
      "payable": false,
      "stateMutability": "nonpayable",
      "type": "function"
    }
  ],
  "bytecode": "0x608060405234801561001057600080fd5b5061005e6040805190810160405280600b81526020017f5365637265746172696174000000000000000000000000000000000000000000815250610197640100000000026401000000009004565b6100ab6040805190810160405280600a81526020017f4d616e204f272057617200000000000000000000000000000000000000000000815250610197640100000000026401000000009004565b6100f86040805190810160405280600a81526020017f5365616269736375697400000000000000000000000000000000000000000000815250610197640100000000026401000000009004565b6101456040805190810160405280600881526020017f50686172204c6170000000000000000000000000000000000000000000000000815250610197640100000000026401000000009004565b6101926040805190810160405280600781526020017f4672616e6b656c00000000000000000000000000000000000000000000000000815250610197640100000000026401000000009004565b6102a2565b6040805190810160405280600054815260200182815250600760008060008154809291906001019190505581526020019081526020016000206000820151816000015560208201518160010190805190602001906101f69291906101fd565b5090505050565b828054600181600116156101000203166002900490600052602060002090601f016020900481019282601f1061023e57805160ff191683800117855561026c565b8280016001018555821561026c579182015b8281111561026b578251825591602001919060010190610250565b5b509050610279919061027d565b5090565b61029f91905b8082111561029b576000816000905550600101610283565b5090565b90565b6109be806102b16000396000f3006080604052600436106100ba576000357c0100000000000000000000000000000000000000000000000000000000900463ffffffff1680630449bb39146100bf57806322af00fa146100ea5780634afe62b51461016557806362e33b1d1461019c5780636b31ee01146101c75780638f8b5cde146101f25780639917ffa81461029f578063a3f67d6d146102ce578063b05b5d9d146102f9578063b52c3b8a14610310578063cf0944971461033b578063e2eb41ff14610366575b600080fd5b3480156100cb57600080fd5b506100d46103c1565b6040518082815260200191505060405180910390f35b3480156100f657600080fd5b50610115600480360381019080803590602001909291905050506103c7565b604051808481526020018373ffffffffffffffffffffffffffffffffffffffff1673ffffffffffffffffffffffffffffffffffffffff168152602001828152602001935050505060405180910390f35b34801561017157600080fd5b5061019a6004803603810190808035906020019092919080359060200190929190505050610411565b005b3480156101a857600080fd5b506101b161060b565b6040518082815260200191505060405180910390f35b3480156101d357600080fd5b506101dc610611565b6040518082815260200191505060405180910390f35b3480156101fe57600080fd5b5061021d60048036038101908080359060200190929190505050610617565b6040518083815260200180602001828103825283818151815260200191508051906020019080838360005b83811015610263578082015181840152602081019050610248565b50505050905090810190601f1680156102905780820380516001836020036101000a031916815260200191505b50935050505060405180910390f35b3480156102ab57600080fd5b506102b46106d3565b604051808215151515815260200191505060405180910390f35b3480156102da57600080fd5b506102e36106e6565b6040518082815260200191505060405180910390f35b34801561030557600080fd5b5061030e6106ec565b005b34801561031c57600080fd5b50610325610810565b6040518082815260200191505060405180910390f35b34801561034757600080fd5b50610350610816565b6040518082815260200191505060405180910390f35b34801561037257600080fd5b506103a7600480360381019080803573ffffffffffffffffffffffffffffffffffffffff16906020019092919050505061081c565b604051808215151515815260200191505060405180910390f35b60005481565b60086020528060005260406000206000915090508060000154908060010160009054906101000a900473ffffffffffffffffffffffffffffffffffffffff16908060020154905083565b6000821015801561042457506000548211155b151561042f57600080fd5b600360009054906101000a900460ff161561044d5761044c61083c565b5b600960003373ffffffffffffffffffffffffffffffffffffffff1673ffffffffffffffffffffffffffffffffffffffff16815260200190815260200160002060009054906101000a900460ff161515156104a657600080fd5b6060604051908101604052808381526020013373ffffffffffffffffffffffffffffffffffffffff1681526020018281525060086000600460008154809291906001019190505581526020019081526020016000206000820151816000015560208201518160010160006101000a81548173ffffffffffffffffffffffffffffffffffffffff021916908373ffffffffffffffffffffffffffffffffffffffff160217905550604082015181600201559050506001600960003373ffffffffffffffffffffffffffffffffffffffff1673ffffffffffffffffffffffffffffffffffffffff16815260200190815260200160002060006101000a81548160ff0219169083151502179055506001600081548092919060010191905055506000600281905550806006600082825401925050819055507fdce07abf25825c566e53cf40d663d19996a2158c8dc18e27ad92b4f643b31eff60405160405180910390a15050565b60055481565b60065481565b6007602052806000526040600020600091509050806000015490806001018054600181600116156101000203166002900480601f0160208091040260200160405190810160405280929190818152602001828054600181600116156101000203166002900480156106c95780601f1061069e576101008083540402835291602001916106c9565b820191906000526020600020905b8154815290600101906020018083116106ac57829003601f168201915b5050505050905082565b600360009054906101000a900460ff1681565b60015481565b600960003373ffffffffffffffffffffffffffffffffffffffff1673ffffffffffffffffffffffffffffffffffffffff16815260200190815260200160002060009054906101000a900460ff16151561074457600080fd5b6002600081548092919060010191905055507f786bcabdf3f99427fffea5b287ea288902339473ea18eca49b0328d4495cb57d60405160405180910390a1600154600254141561080e576001600360006101000a81548160ff021916908315150217905550600054424460405180838152602001828152602001925050506040518091039020600190048115156107d757fe5b0660ff166005819055507fea3258ccb4489771fa8fdb5b72504ef7f18fedb84dc20828f1344da450cc1fc360405160405180910390a15b565b60025481565b60045481565b60096020528060005260406000206000915054906101000a900460ff1681565b60008090505b60045481101561095457600960006008600084815260200190815260200160002060010160009054906101000a900473ffffffffffffffffffffffffffffffffffffffff1673ffffffffffffffffffffffffffffffffffffffff1673ffffffffffffffffffffffffffffffffffffffff16815260200190815260200160002060006101000a81549060ff0219169055600554600860008381526020019081526020016000206000015414156108fa5760006006819055505b600860008281526020019081526020016000206000808201600090556001820160006101000a81549073ffffffffffffffffffffffffffffffffffffffff0219169055600282016000905550508080600101915050610842565b6000600181905550600060048190555060006002819055506000600360006101000a81548160ff0219169083151502179055506000600581905550505600a165627a7a72305820941379f57b374f9d7a946f44b651c553f045dbd56f310a5d6aaa2386fee6dc760029",
  "source": "pragma solidity ^0.4.2;\n\ncontract Race {\n    \n    uint public horseCount;\n        \n    uint public playersCount;\n\n    uint public playersReadyToRace;\n    \n    bool public raceFinished;\n    \n    uint public betCount;\n    \n    uint public winnerHorse;\n    \n    uint public jackpot;\n\n    struct Horse {\n        uint id;\n        string name;\n    }\n    \n    struct Bet {\n        uint index;\n        address player;\n        uint amount;\n    }\n\n    mapping(uint => Horse) public horses;\n    \n    mapping(uint => Bet) public bets;\n    \n    mapping(address => bool) public players;\n    \n    constructor() public {\n        addHorse(\"Secretariat\");\n        addHorse(\"Man O' War\");\n        addHorse(\"Seabiscuit\");\n        addHorse(\"Phar Lap\");\n        addHorse(\"Frankel\");\n    }\n\n    function addHorse (string name) private {\n        horses[horseCount++] = Horse(horseCount, name);\n    }\n    \n    function placeBet (uint index, uint amount) public {\n        require(index >=0 && index <= horseCount);\n\n        if(raceFinished) {\n            reset();\n        }\n        \n        require(!players[msg.sender]);\n        bets[betCount++] = Bet(index, msg.sender, amount);\n        players[msg.sender] = true;\n        playersCount++;\n        playersReadyToRace = 0;\n        jackpot += amount;\n        \n        emit betPlaced();\n    }\n    \n    function playerReadyToRace () public {\n        require(players[msg.sender]);\n        playersReadyToRace++;\n        emit playersReadyToRaceChanged();\n        if(playersReadyToRace == playersCount) {\n            raceFinished = true;\n            winnerHorse = uint8(uint256(keccak256(block.timestamp, block.difficulty))%horseCount);\n            emit finishedRace();\n        }\n    }\n    \n    function reset () private {\n        for (uint i=0; i<betCount; i++) {\n            delete players[bets[i].player];\n            if(bets[i].index == winnerHorse) {\n                jackpot = 0;\n            }\n            delete bets[i];\n        }\n        playersCount = 0;\n        betCount = 0;\n        playersReadyToRace = 0;\n        raceFinished = false;\n        winnerHorse = 0;\n    }\n    \n    event betPlaced ();\n\n    event playersReadyToRaceChanged();\n    \n    event finishedRace ();\n\n}",
  "sourcePath": "/Users/gabrielindik/Documents/Project/kbp/blockchain/contracts/Race.sol",
  "compiler": {
    "name": "solc",
    "version": "0.4.24+commit.e67f0147.Emscripten.clang"
  },
  "schemaVersion": "2.0.1",
  "updatedAt": "2018-06-30T23:46:52.926Z"
}